:020000040000FA
:10000000780400206D0200007102000073020000FD
:100010007502000077020000790200000000000075
:100020000000000000000000000000007B02000053
:100030007D020000000000007F020000810200003D
:10004000830200008302000083020000830200009C
:10005000830200008302000083020000830200008C
:10006000830200008302000083020000830200007C
:10007000830200008302000083020000830200006C
:10008000830200008302000083020000830200005C
:10009000830200008302000083020000830200004C
:1000A000830200008302000083020000830200003C
:1000B0008302000083020000F505000083020000B7
:1000C000830200008302000083020000830200001C
:1000D000830200008302000083020000830200000C
:1000E00083020000830200008302000083020000FC
:1000F00083020000830200008302000083020000EC
:1001000083020000830200008302000083020000DB
:1001100083020000830200008302000083020000CB
:1001200083020000830200008302000083020000BB
:1001300083020000830200008302000083020000AB
:1001400000000000000000000000000000000000AF
:10015000830200008302000083020000830200008B
:10016000000000000000000000000000000000008F
:10017000000000000000000000000000000000007F
:10018000000000000000000000000000000000006F
:10019000000000000000000000000000000000005F
:1001A000000000000000000000000000000000004F
:1001B000830200008302000083020000830200002B
:1001C000830200008302000083020000830200001B
:1001D000830200008302000083020000830200000B
:1001E00083020000830200008302000083020000FB
:1001F00083020000830200008302000083020000EB
:10020000830200008302000083020000000000005F
:1002100083020000830200008302000083020000CA
:1002200083020000830200008302000083020000BA
:1002300083020000830200008302000083020000AA
:10024000830200008302000083020000830200009A
:10025000830200008302000083020000830200008A
:1002600083020000830200008302000000F00AB84D
:10027000FEE7FEE7FEE7FEE7FEE7FEE7FEE7FEE756
:10028000FEE7FEE700F002F800F050F814A696E84A
:10029000000CB244B344DA4501D100F047F8BAE8A3
:1002A0000F000FA696E83000A5EB040504EB060747
:1002B000AAEB0704A7F101074FEA15154FEA34141A
:1002C000A4F10104AC4201D300F030F813F0010FA7
:1002D00018BFFB1A43F0010300F001F8DBE71847F1
:1002E000E80B0000080C0000103A24BF78C878C161
:1002F000FAD8520724BF30C830C144BF04680C602C
:1003000070470000704700000023002400250026ED
:10031000103A28BF78C1FBD8520728BF30C148BF68
:100320000B6070471FB51FBD10B510BD00F029F858
:100330001146FFF7F7FF00F04FFB00F047F803B45A
:10034000FFF7F2FF03BC00F04FF8000072B67047F1
:1003500062B67047EFF3108072B6704780F3108872
:10036000704730BF704702480249014A024B70474C
:100370007800002078040020780000207047704743
:100380007047754600F02CF8AE46050069465346A6
:1003900020F00700854618B020B5FFF7E4FFBDE860
:1003A00020404FF000064FF000074FF000084FF0DC
:1003B000000BAC46ACE8C009ACE8C009ACE8C00929
:1003C000ACE8C00921F007018D46704710B504461E
:1003D000AFF300802046BDE81040FFF7B0BF00003B
:1003E000004870471000002001491820ABBEFEE70E
:1003F0002600020070470000FFE74DF21800C4F22B
:1004000000000068C006002801D5FFE7F5E74DF2BF
:100410000000C4F200000068C0B2704780B54EF220
:100420000412C4F20F02106840F0020010604EF295
:100430000811C4F20F01086840F00200086010685B
:1004400040F001001060086840F0010008604CF2C4
:10045000300EC4F2000EDEF8000020F00100CEF8ED
:1004600000004CF22400C4F20000112202604CF2A1
:100470002800C4F200004FF0170CC0F800C04CF286
:100480002C01C4F2000170200860DEF8001040F278
:1004900001331943CEF8001044F2204EC4F2000E8E
:1004A000DEF8001041F00301CEF8001044F21C5EAB
:1004B000C4F2000EDEF8001041F00301CEF8001087
:1004C00044F22C5EC4F2000EDEF8001062F3070165
:1004D000CEF8001044F2285EC4F2000EDEF80010E0
:1004E00021F00301CEF800104DF23001C4F20001FA
:1004F000D1F800E02EF0010EC1F800E04DF2240E1C
:10050000C4F2000ECEF800204DF2280EC4F2000E08
:10051000CEF800C04DF22C0CC4F2000CCCF8000058
:1005200008681843086045F22041C4F200010868D9
:1005300040F00300086045F21C51C4F20001086855
:1005400040F00300086045F22C51C4F20001086835
:1005500062F30700086045F22851C4F20001086800
:1005600020F00300086080BD80B582B00190019842
:1005700000F0B6F902B080BD4EF20811C4F20F01CE
:10058000086840F010000860FFE74EF20810C4F25F
:100590000F00006800F01000102801D0FFE7F4E71A
:1005A00044F22851C4F20201086820F00F000860EC
:1005B00044F22C51C4F2020108684FF6FF729043D6
:1005C000086044F20041C4F20201086840F00F00E4
:1005D000086044F22041C4F20201086820F00F00D4
:1005E000086044F21C51C4F20201086840F00F0098
:1005F0000860704780B51420FFF7B6FF45F21C4134
:10060000C4F20201086840F01000086040F20800DF
:10061000C2F200000078C00798B1FFE740F208017D
:10062000C2F200010020087040F27101C2F2000124
:100630000120087045F23801C4F20201042008606C
:1006400012E040F20801C2F200010120087045F2F8
:100650003801C4F202010820086040F27101C2F2C0
:10066000000100200870FFE780BD00004EF2081175
:10067000C4F20F01086840F020000860FFE74EF266
:100680000810C4F20F0000688006002801D4FFE7BC
:10069000F5E745F22051C4F2020144F24B30C4F6B2
:1006A0004F40086045F22451C4F20201086840F04E
:1006B0001E00086045F20041C4F20201086840F0E3
:1006C0000E000860086820F01000086045F2204124
:1006D000C4F20201086820F01E00086045F21C51B7
:1006E000C4F20201086840F01E00086045F22C5177
:1006F000C4F2020108686FF31310086045F2285134
:10070000C4F20201086820F01E00086045F2105192
:10071000C4F20201086840F01000086045F204418C
:10072000C4F20201086820F01000086045F2084198
:10073000C4F20201086820F01000086045F20C4184
:10074000C4F20201086840F01000086045F21C4144
:10075000C4F202011020086045F21041C4F2020107
:10076000086840F0100008604EF21C41CEF2000113
:100770000868012262F3575008604EF20011CEF271
:100780000001086840F080400860704782B0019026
:1007900000910198013848F25801C4F20201086042
:1007A0000098013848F25C01C4F20201086002B00E
:1007B000704700004EF20810C4F20F000068800776
:1007C000002814D4FFE74EF20811C4F20F010868A4
:1007D00040F002000860FFE74EF20810C4F20F007C
:1007E00000688007002801D4FFE7F5E7FFE745F23E
:1007F0002041C4F20001086840F0C000086045F2E2
:100800002C51C4F20001086820F07F40086008689D
:1008100040F08840086045F21C51C4F200010868AD
:1008200040F0C00008604EF24061C4F20F01086859
:1008300040F0010008604EF26001C4F20F01086848
:1008400020F4F010086048F24001C4F202010020D8
:10085000086048F26003C4F202031A6842F0C8025A
:100860001A6048F26403C4F202031A6840F6084CA6
:1008700042EA0C021A6048F25003C4F2020343F643
:100880007F621A6048F25802C4F20202106048F215
:100890005C02C4F202021060086840F001000860C7
:1008A00048F20801C4F20201086820F00300086061
:1008B000704700004EF21001CEF2000100200860E7
:1008C0004EF21403CEF2000343F67F621A604EF23A
:1008D0001802CEF200021060052008607047000088
:1008E00081B00090FFE70098E0B1FFE74EF21401FD
:1008F000CEF2000143F67F6008604EF21801CEF29E
:10090000000100200860FFE74EF21000CEF2000068
:100910000068C003002801D4FFE7F5E7009801381C
:100920000090E0E701B0704781B08DF80300FFE769
:100930004CF21800C4F2000000688006002801D5BF
:10094000FFE7F5E79DF803004CF20001C4F2000157
:10095000086001B07047000080B500F061F900F058
:100960003FFA44F23C01C4F202010F20086000F09B
:1009700049FA40F6D860FFF7F7FD00F037F900F0CC
:100980002FFA80BD80B584B000F04AF900F028FA53
:1009900044F23C01C4F2020101910F200290086070
:1009A00000F030FA40F6D8600390FFF7DDFD00F06C
:1009B00017FA00F0EBF800F013FA019902980860BA
:1009C00000F030FA0398FFF7CFFD00F0DFF800F0F9
:1009D00007FA04B080BD000080B582B0002001900D
:1009E000FFF7B4FCFFF766FFFFF718FDFFF7C4FD44
:1009F000FFF73CFEFFF7DEFE41F27C510846FFF7B1
:100A0000C5FE45F23801C4F2020108200860FFF774
:100A10009FFCFFE7FFF7F0FC014640F27000C2F2D6
:100A2000000001700078FFF77FFF0D20FFF77CFFCB
:100A30000A20FFF779FF40F20800C2F200000078B8
:100A4000C00718B1FFE700F00FF80BE040F27100AB
:100A5000C2F200000078C00718B1FFE700F02CF8E0
:100A6000FFE7FFE7D6E7000080B582B040F27000F4
:100A7000C2F2000000780146019138280CD0FFE74F
:100A8000019863280BD0FFE7019873280AD0FFE78D
:100A900001987A2809D00BE0FFF774FF09E0FFF70F
:100AA0005BFF06E000F07EF903E000F0CBF900E028
:100AB000FFE702B080BD000080B582B040F2700058
:100AC000C2F200000078623801460191132821D853
:100AD0000199DFE801F00D1F1C1F0A1F1F1F1F1FB8
:100AE000101F1F1F1F1F13161F1900F033F812E0ED
:100AF00000F014F80FE000F085F90CE000F092F936
:100B000009E000F06DF906E000F0F8F803E000F00D
:100B1000A1F800E0FFE702B080BD000080B544F21C
:100B20003C01C4F202010A20086040F20000C2F257
:100B30000000006840F20401C2F200010968FFF7FA
:100B400025FE48F20801C4F20201086840F00300E3
:100B5000086080BD80B544F23C01C4F202010F2060
:100B6000086040F20000C2F20000006840F2040198
:100B7000C2F200010968FFF709FE48F20801C4F259
:100B80000201086840F00300086080BD80B544F2AF
:100B90003C01C4F202010E20086041F27C5108467B
:100BA000FFF7F4FD48F20801C4F20201086840F0C2
:100BB00003000860AF20FFF7D7FC80BD80B544F28A
:100BC0003C01C4F202010B20086041F27C5108464E
:100BD000FFF7DCFD48F20801C4F20201086840F0AA
:100BE00003000860AF20FFF7BFFC80BD80B544F272
:100BF0003C01C4F202010E20086041F27C5108461B
:100C0000FFF7C4FD48F20801C4F20201086840F091
:100C1000030008604FF49670FFF7A6FC80BD00004B
:100C200080B544F23C01C4F202010B20086041F29D
:100C30007C510846FFF7AAFD48F20801C4F2020100
:100C4000086840F0030008604FF49670FFF78CFCD2
:100C500080BD000080B540F20000C2F200000068D4
:100C600042F2341188421ED1FFE740F20000C2F286
:100C70000000006840F20401C2F2000109688842E5
:100C800011D1FFE740F20000C2F2000041F27C52B5
:100C9000026040F20401C2F200010A6000680968C3
:100CA000FFF774FD28E040F20000C2F20000006887
:100CB00041F27C5188421ED1FFE740F20000C2F2AF
:100CC0000000006840F20401C2F200010968884295
:100CD00011D1FFE740F20000C2F2000040F6C4125A
:100CE000026040F20401C2F200010A600068096873
:100CF000FFF74CFDFFE7FFE780BD000080B540F245
:100D00000000C2F20000006840F6C41188421ED103
:100D1000FFE740F20000C2F20000006840F2040168
:100D2000C2F200010968884211D1FFE740F20000D9
:100D3000C2F2000041F27C52026040F20401C2F2B1
:100D400000010A6000680968FFF720FD28E040F212
:100D50000000C2F20000006841F27C5188421ED1BE
:100D6000FFE740F20000C2F20000006840F2040118
:100D7000C2F200010968884211D1FFE740F2000089
:100D8000C2F2000042F23412026040F20401C2F2E8
:100D900000010A6000680968FFF7F8FCFFE7FFE759
:100DA00080BD000080B582B000200190FFE701986F
:100DB000032811DCFFE7FFF7CDFE4FF47A70FFF751
:100DC000D3FB00F00DF8FFF72BFF00F009F8FFE769
:100DD000019801300190EAE700F002F802B080BD0E
:100DE00080B501210846FFF7D1FC48F20801C4F2A2
:100DF0000201086820F0030008606420FFF7B4FBDC
:100E000080BD000080B548F20801C4F20201086804
:100E100040F00300086041F27C5042F23411FFF7C9
:100E2000B5FC80BD80B548F20801C4F20201086833
:100E300040F00300086042F2341041F27C51FFF7A9
:100E4000A5FC80BD80B582B000200190FFE701982D
:100E5000012825DCFFE7FFF7B1FEFFF7C1FFFFF731
:100E600079FE40F2EE200090FFF77EFBFFF7B8FF1F
:100E7000FFF7BCFE5520FFF777FBFFF7B1FFFFF749
:100E800069FE0098FFF770FBFFF7AAFFFFF796FED9
:100E90003220FFF769FBFFE7019801300190D6E7A8
:100EA000FFF78CFE3220FFF75FFBFFF799FFFFF79C
:100EB00051FE40F2EE20FFF757FBFFF767FEFFF70A
:100EC0008FFF02B080BD0000E80E0000000000208F
:100ED0000C000000E8020000F40E000010000020EA
:100EE00068040000080300007C1500007C15000069
:040EF00001000000FD
:040000050000026D88
:00000001FF
