:020000040000FA
:10000000600400206D020000710200007302000015
:100010007502000077020000790200000000000075
:100020000000000000000000000000007B02000053
:100030007D020000000000007F020000810200003D
:10004000830200008302000083020000830200009C
:10005000830200008302000083020000830200008C
:10006000830200008302000083020000830200007C
:10007000830200008302000083020000830200006C
:10008000830200008302000083020000830200005C
:10009000830200008302000083020000830200004C
:1000A000830200008302000083020000830200003C
:1000B000830200008302000083020000830200002C
:1000C000830200008302000083020000830200001C
:1000D000830200008302000083020000830200000C
:1000E00083020000830200008302000083020000FC
:1000F00083020000830200008302000083020000EC
:1001000083020000830200008302000083020000DB
:1001100083020000830200008302000083020000CB
:1001200083020000830200008302000083020000BB
:1001300083020000830200008302000083020000AB
:1001400000000000000000000000000000000000AF
:10015000830200008302000083020000830200008B
:10016000000000000000000000000000000000008F
:10017000000000000000000000000000000000007F
:10018000000000000000000000000000000000006F
:10019000000000000000000000000000000000005F
:1001A000000000000000000000000000000000004F
:1001B000830200008302000083020000830200002B
:1001C000830200008302000083020000830200001B
:1001D000830200008302000083020000830200000B
:1001E00083020000830200008302000083020000FB
:1001F00083020000830200008302000083020000EB
:10020000830200008302000083020000000000005F
:1002100083020000830200008302000083020000CA
:1002200083020000830200008302000083020000BA
:1002300083020000830200008302000083020000AA
:10024000830200008302000083020000830200009A
:10025000830200008302000083020000830200008A
:1002600083020000830200008302000000F00AB84D
:10027000FEE7FEE7FEE7FEE7FEE7FEE7FEE7FEE756
:10028000FEE7FEE700F002F800F042F814A696E858
:10029000000CB244B344DA4501D100F039F8BAE8B1
:1002A0000F000FA696E83000A5EB040504EB060747
:1002B000AAEB0704A7F101074FEA15154FEA34141A
:1002C000A4F10104AC4201D300F022F813F0010FB5
:1002D00018BFFB1A43F0010300F001F8DBE71847F1
:1002E00080060000900600007047000000230024F4
:1002F00000250026103A28BF78C1FBD8520728BF36
:1003000030C148BF0B6070471FB51FBD10B510BD91
:1003100000F048F81146FFF7F7FF00F015FA00F07B
:1003200066F803B4FFF7F2FF03BC00F06DF80000BD
:1003300072B6704762B67047EFF3108072B67047BE
:1003400080F31088704730BF704702480249014A65
:10035000024B704760000020600400206000002015
:1003600010B5431C02E010F8011B71B18107FAD1EE
:100370004FF0013202C88C1A8C4314EAC211F9D032
:10038000C01A0A0603D0C01E10BDC01A10BD0A0450
:1003900001D0801E10BD0902FCD0401E10BD704768
:1003A00070477047754600F02BF8AE460500694669
:1003B000534620F00700854618B020B5FFF7C5FF6B
:1003C000BDE820404FF000064FF000074FF0000856
:1003D0004FF0000BAC46ACE8C009ACE8C009ACE893
:1003E000C009ACE8C00921F007018D46704710B57F
:1003F0000446AFF300802046BDE81040FFF791BFF0
:10040000004870470000002001491820ABBEFEE7FD
:100410002600020070470000FFE74DF21800C4F20A
:1004200000000068C006002801D5FFE7F5E74DF29F
:100430000000C4F200000068C0B2704780B582B00E
:10044000019000208DF80300FFE7FFF7E5FF019919
:100450009DF8032088549DF8030001308DF80300B7
:10046000FFE701999DF80300084410F8010C0A28E1
:10047000EBD1FFE79DF8030002388DF803000199E6
:100480009DF803200020885402B080BD4EF2041174
:10049000C4F20F01086840F0020008604EF2081133
:1004A000C4F20F01086840F0020008604DF230010C
:1004B000C4F20001086820F0010008604DF2240237
:1004C000C4F200021A2010604DF22802C4F20002A9
:1004D000032010604DF22C02C4F200027020106064
:1004E000086840F201321043086045F22041C4F22E
:1004F0000001086840F00300086045F21C51C4F296
:100500000001086840F00300086045F22C51C4F275
:1005100000010868112262F30700086045F22851C3
:10052000C4F20001086820F0030008607047000072
:1005300081B08DF80300FFE74DF21800C4F200000F
:1005400000688006002801D5FFE7F5E79DF8030065
:100550004DF20001C4F20001086001B070470000D4
:1005600080B582B00190FFE70198007840B1FFE7C5
:1005700001980078FFF7DCFF019801300190F3E764
:1005800002B080BDFFE74CF21800C4F20000006822
:10059000C006002801D5FFE7F5E74CF20000C4F2E1
:1005A00000000068C0B2704780B584B00390ADF819
:1005B0000A100020ADF80800FFF7E4FF8DF80700EF
:1005C000FFE79DF807000D2834D0FFE79DF80700EE
:1005D000082811D1FFE7BDF8080060B1FFE70398D4
:1005E00001380390BDF808000138ADF80800082074
:1005F00000F080F8FFE718E0BDF80800BDF80A1029
:10060000884211DAFFE79DF8070003990870039804
:1006100001300390BDF808000130ADF808009DF8E6
:10062000070000F067F8FFE7FFE7FFF7ABFF8DF883
:100630000700C6E7039900200870BDF8080004B061
:1006400080BD00004EF20411C4F20F01086840F0B2
:10065000010008604EF20811C4F20F01086840F072
:10066000010008604CF23001C4F20001086820F07B
:10067000010008604CF22400C4F200001122026064
:100680004CF22803C4F20003172018604CF22C032C
:10069000C4F2000370201860086840F20133184368
:1006A000086044F22041C4F20001086840F00300F1
:1006B000086044F21C51C4F20001086840F00300D5
:1006C000086044F22C51C4F20001086862F307008C
:1006D000086044F22851C4F20001086820F00300C9
:1006E0000860704780B50D2000F004F80A2000F083
:1006F00001F880BD81B08DF80300FFE74CF21800CF
:10070000C4F2000000688006002801D5FFE7F5E785
:100710009DF803004CF20001C4F20001086001B032
:100720007047000080B582B00190FFE70198007823
:1007300040B1FFE701980078FFF7DCFF0198013036
:100740000190F3E702B080BD80B596B0002015900F
:100750000C90FFE70C981D280ADCFFE70C9A0DF1BE
:10076000360100208854FFE70C9801300C90F1E727
:10077000FFF768FFFFF78AFE40F61710C0F200008F
:10078000FFF7D0FFFFF7AEFF40F6D900C0F2000040
:10079000FFF7C8FFFFF7A6FF40F6B300C0F2000066
:1007A000FFF7C0FFFFF79EFF40F68400C0F2000095
:1007B000FFF7B8FFFFF796FF40F63B10C0F20000CE
:1007C000FFF7B0FFFFF78EFFFFE740F68100C0F2B2
:1007D0000000FFF7A7FF0DF1120003901E21FFF7A5
:1007E000E3FEFFF77FFF0398FFF7BAFE40F67E00B7
:1007F000C0F20000FFF7B4FEFFE74DF21800C4F2AC
:10080000000000680007002801D5FFE7F5E70DF1BB
:1008100036000290FFF712FE0298FFF783FFFFF702
:1008200061FF00208DF81100FFE79DF811001D28E1
:100830000DDCFFE79DF811200DF1360100208854F2
:10084000FFE79DF8110001308DF81100EDE70DF183
:1008500012000190FFF784FD0199084410F8010C83
:100860003F280BD1FFE70DF136000090FFF7E6FDC2
:100870000098FFF757FFFFF735FFFFE7A5E70D0AE1
:10088000003E20003E3E3E205479706520274154B2
:100890002720616E6420666F6C6C6F7765642077CB
:1008A000697468206120636F6D6D616E642E203CF9
:1008B0003C3C003E3E3E20596F75206172652061D0
:1008C00074202741542720436F6D6D616E64204D65
:1008D0006F64652E203C3C3C003E3E3E20546869DF
:1008E0007320697320746865207365747570207057
:1008F000726F6772616D20666F722048432D3035CC
:1009000020426C7565746F6F7468206D6F64756CD0
:10091000652E203C3C3C003E3E3E2057656C636F9C
:100920006D6520746F2053657269616C2054657227
:100930006D696E616C2E203C3C3C003E3E3E204585
:1009400078616D706C653A2041542B4E414D453DA8
:10095000596F7572204E616D65203C3C3C00000073
:10096000700900000000002060040000EC0200009C
:040000050000026D88
:00000001FF
