:020000040000FA
:10000000680400206D02000071020000730200000D
:100010007502000077020000790200000000000075
:100020000000000000000000000000007B02000053
:100030007D020000000000007F020000810200003D
:10004000830200008302000083020000830200009C
:10005000830200008302000083020000830200008C
:10006000830200008302000083020000830200007C
:10007000830200008302000083020000830200006C
:10008000830200008302000083020000830200005C
:10009000830200008302000083020000830200004C
:1000A000830200008302000083020000830200003C
:1000B000830200008302000083020000830200002C
:1000C000830200008302000083020000830200001C
:1000D000830200008302000083020000830200000C
:1000E00083020000830200008302000083020000FC
:1000F00083020000830200008302000083020000EC
:1001000083020000830200008302000083020000DB
:1001100083020000830200008302000083020000CB
:1001200083020000830200008302000083020000BB
:1001300083020000830200008302000083020000AB
:1001400000000000000000000000000000000000AF
:10015000830200008302000083020000830200008B
:10016000000000000000000000000000000000008F
:10017000000000000000000000000000000000007F
:10018000000000000000000000000000000000006F
:10019000000000000000000000000000000000005F
:1001A000000000000000000000000000000000004F
:1001B000830200008302000083020000830200002B
:1001C000830200008302000083020000830200001B
:1001D000830200008302000083020000830200000B
:1001E00083020000830200008302000083020000FB
:1001F00083020000830200008302000083020000EB
:10020000830200008302000083020000000000005F
:1002100083020000830200008302000083020000CA
:1002200083020000830200008302000083020000BA
:1002300083020000830200008302000083020000AA
:10024000830200008302000083020000830200009A
:10025000830200008302000083020000830200008A
:1002600083020000830200008302000000F00AB84D
:10027000FEE7FEE7FEE7FEE7FEE7FEE7FEE7FEE756
:10028000FEE7FEE700F002F800F050F814A696E84A
:10029000000CB244B344DA4501D100F047F8BAE8A3
:1002A0000F000FA696E83000A5EB040504EB060747
:1002B000AAEB0704A7F101074FEA15154FEA34141A
:1002C000A4F10104AC4201D300F030F813F0010FA7
:1002D00018BFFB1A43F0010300F001F8DBE71847F1
:1002E0000809000028090000103A24BF78C878C126
:1002F000FAD8520724BF30C830C144BF04680C602C
:1003000070470000704700000023002400250026ED
:10031000103A28BF78C1FBD8520728BF30C148BF68
:100320000B6070471FB51FBD10B510BD00F029F858
:100330001146FFF7F7FF00F0E9FA00F047F803B4C1
:10034000FFF7F2FF03BC00F04FF8000072B67047F1
:1003500062B67047EFF3108072B6704780F3108872
:10036000704730BF704702480249014A024B70474C
:100370006800002068040020680000207047704773
:100380007047754600F02CF8AE46050069465346A6
:1003900020F00700854618B020B5FFF7E4FFBDE860
:1003A00020404FF000064FF000074FF000084FF0DC
:1003B000000BAC46ACE8C009ACE8C009ACE8C00929
:1003C000ACE8C00921F007018D46704710B504461E
:1003D000AFF300802046BDE81040FFF7B0BF00003B
:1003E000004870470800002001491820ABBEFEE716
:1003F0002600020070470000FFE74DF21800C4F22B
:1004000000000068C006002801D5FFE7F5E74DF2BF
:100410000000C4F200000068C0B2704780B54EF220
:100420000412C4F20F02106840F0020010604EF295
:100430000811C4F20F01086840F00200086010685B
:1004400040F001001060086840F0010008604CF2C4
:10045000300EC4F2000EDEF8000020F00100CEF8ED
:1004600000004CF22400C4F20000112202604CF2A1
:100470002800C4F200004FF0170CC0F800C04CF286
:100480002C01C4F2000170200860DEF8001040F278
:1004900001331943CEF8001044F2204EC4F2000E8E
:1004A000DEF8001041F00301CEF8001044F21C5EAB
:1004B000C4F2000EDEF8001041F00301CEF8001087
:1004C00044F22C5EC4F2000EDEF8001062F3070165
:1004D000CEF8001044F2285EC4F2000EDEF80010E0
:1004E00021F00301CEF800104DF23001C4F20001FA
:1004F000D1F800E02EF0010EC1F800E04DF2240E1C
:10050000C4F2000ECEF800204DF2280EC4F2000E08
:10051000CEF800C04DF22C0CC4F2000CCCF8000058
:1005200008681843086045F22041C4F200010868D9
:1005300040F00300086045F21C51C4F20001086855
:1005400040F00300086045F22C51C4F20001086835
:1005500062F30700086045F22851C4F20001086800
:1005600020F00300086080BD80B582B00190019842
:1005700000F07AF902B080BD4EF20811C4F20F010A
:10058000086840F010000860FFE74EF20810C4F25F
:100590000F00006800F01000102801D0FFE7F4E71A
:1005A00044F22851C4F20201086820F00F000860EC
:1005B00044F22C51C4F2020108684FF6FF729043D6
:1005C000086044F20041C4F20201086840F00F00E4
:1005D000086044F22041C4F20201086820F00F00D4
:1005E000086044F21C51C4F20201086840F00F0098
:1005F000086070474EF20811C4F20F01086840F01D
:1006000020000860FFE74EF20810C4F20F000068F7
:100610008006002801D4FFE7F5E745F22051C4F237
:10062000020144F24B30C4F64F40086045F22451B9
:10063000C4F20201086840F01F00086045F2004162
:10064000C4F20201086840F00E000860086820F05B
:100650001100086045F22041C4F20201086820F050
:100660001F00086045F21C51C4F20201086840F006
:100670001F00086045F22C51C4F2020108686FF3B4
:100680001300086045F22851C4F20201086820F006
:100690001F00086045F21051C4F20201086840F0E2
:1006A0001100086045F20441C4F20201086820F01C
:1006B0001100086045F20841C4F20201086820F008
:1006C0001100086045F20C41C4F20201086840F0D4
:1006D0001100086045F21C41C4F2020111200860BB
:1006E00045F21041C4F20201086840F011000860B0
:1006F0004EF21C41CEF200010868062262F3575008
:1007000008604EF20011CEF20001086840F080400F
:100710000860704782B0019000910198013848F25A
:100720005801C4F2020108600098013848F25C01E7
:10073000C4F20201086002B0704700004EF20810D7
:10074000C4F20F0000688007002814D4FFE74EF2BF
:100750000811C4F20F01086840F002000860FFE7CA
:100760004EF20810C4F20F0000688007002801D480
:10077000FFE7F5E7FFE745F22041C4F20001086812
:1007800040F0C000086045F22C51C4F20001086836
:1007900020F07F400860086840F08840086045F21B
:1007A0001C51C4F20001086840F0C00008604EF21D
:1007B0004061C4F20F01086840F0010008604EF289
:1007C0006001C4F20F01086820F4F010086048F2DC
:1007D0004001C4F202010020086048F26003C4F244
:1007E00002031A6842F0C8021A6048F26403C4F2B5
:1007F00002031A6840F6084C42EA0C021A6048F2FA
:100800005003C4F2020343F67F621A6048F25802B2
:10081000C4F20202106048F25C02C4F202021060EC
:10082000086840F00100086048F20801C4F20201C3
:10083000086820F003000860704700004EF21001C5
:10084000CEF20001002008604EF21403CEF2000345
:1008500043F67F621A604EF21802CEF20002106078
:10086000052008607047000081B00090FFE7009805
:10087000E0B1FFE74EF21401CEF2000143F67F60D3
:1008800008604EF21801CEF2000100200860FFE778
:100890004EF21000CEF200000068C003002801D420
:1008A000FFE7F5E7009801380090E0E701B07047F6
:1008B00080B500F0E1F800F017F900F027F940F6F4
:1008C000D860FFF751FE00F0BDF800F00DF980BDD3
:1008D00080B582B000F0D0F800F006F900F016F90B
:1008E00040F6D8600190FFF73FFE00F0FDF800F001
:1008F00079F800F0F9F800F01FF90198FFF734FEDD
:1009000000F0A0F800F0F0F802B080BD80B582B031
:10091000002000900190FFF791FFFFF77FFDFFF7A8
:100920002BFEFFF767FEFFF709FF4FF4FA51084669
:10093000FFF7F0FE009845F23801C4F202010860AA
:10094000FFE7FFE740F20000C2F200000078C007B6
:1009500018B1FFE700F002F8F4E7F2E780B582B0E3
:1009600045F23801C4F2020108200860FFF744FD97
:100970008DF807009DF907000146009138280CD03A
:10098000FFE7009863280BD0FFE7009873280AD090
:10099000FFE700987A2809D00BE0FFF799FF09E0FC
:1009A000FFF786FF06E000F081F803E000F0DAF8D8
:1009B00000E0FFE702B080BD80B544F23C01C4F224
:1009C00002010F20086042F234110846FFF7A2FE30
:1009D00048F20801C4F20201086840F00300086010
:1009E00080BD000080B544F23C01C4F202010E203B
:1009F000086041F27C510846FFF78CFE48F208017E
:100A0000C4F20201086840F003000860AF20FFF75D
:100A1000ABFD80BD80B544F23C01C4F202010B2065
:100A2000086041F27C510846FFF774FE48F2080165
:100A3000C4F20201086840F003000860AF20FFF72D
:100A400093FD80BD80B544F23C01C4F202010E204A
:100A5000086041F27C510846FFF75CFE48F208014D
:100A6000C4F20201086840F0030008604FF4967079
:100A7000FFF77AFD80BD000080B544F23C01C4F26E
:100A800002010B20086041F27C510846FFF742FE4C
:100A900048F20801C4F20201086840F0030008604F
:100AA0004FF49670FFF760FD80BD000080B582B006
:100AB00000200190FFE70198032811DCFFE7FFF712
:100AC0007BFF4FF47A70FFF74FFD00F00DF8FFF752
:100AD000D3FF00F009F8FFE7019801300190EAE741
:100AE00000F002F802B080BD80B501210846FFF792
:100AF00011FE48F20801C4F20201086820F0030068
:100B000008606420FFF730FD80BD000080B544F22E
:100B10003C01C4F202010F20086041F27C5042F215
:100B20003411FFF7F7FD48F20801C4F2020108682A
:100B300040F00300086080BD80B544F23C01C4F27F
:100B400002010F20086042F2341041F27C51FFF79D
:100B5000E1FD48F20801C4F20201086840F0030018
:100B6000086080BD80B582B000200190FFE7019849
:100B7000012825DCFFE7FFF74DFFFFF7B5FFFFF783
:100B80001BFF40F2EE200090FFF7EEFCFFF7ACFFFA
:100B9000FFF758FF5520FFF7E7FCFFF7A5FFFFF72A
:100BA0000BFF0098FFF7E0FCFFF79EFFFFF732FF17
:100BB0003220FFF7D9FCFFE7019801300190D6E71A
:100BC000FFF728FF3220FFF7CFFCFFF78DFFFFF77D
:100BD000F3FE40F2EE20FFF7C7FCFFF703FFFFF73D
:100BE00083FF02B080BD0000080C00000000002060
:100BF00004000000E80200000C0C000008000020C7
:0C0C000060040000080300000100000078
:040000050000026D88
:00000001FF
